:1000000000308A00CA2A00000A108A100A118207EA
:1000100028340C34013406340A108A100A1182077D
:100020004C3441344234303438342D344134443447
:10003000433400340A108A100A11820754344534BC
:100040004D3450342034563441344C3455344534D6
:100050003A342034203420342034433400343230D5
:10006000840083130008031942280630F800F701C2
:10007000F70B3828F80B37287B30F700F70B3E28B2
:10008000800B35280034390EF039F7000F300805A1
:1000900077048800000008140330F700F70B4E289F
:1000A000081000348810F030831688008312081579
:1000B0000000081400000808080E0F39B9000810E5
:1000C000000008146328642800000808080E0F398F
:1000D000B80008100030831688008312390EF7002C
:1000E000F030F70577083804F8007808B800B81B36
:1000F0005328361C88103618881400000811000098
:100100000810370EB8000F30B8053808B900432082
:1001100037080F39B800B900432000340030831687
:10012000880083128810081108100F30B2002F20A9
:100130000130B0003008033C031CA6280330B9008E
:1001400043200530B2002F20B00A9A280230B900AF
:100150004320B0013008033C031CB72830080420BA
:10016000B100B6013108B7005220B00AAA288A119E
:100170000A12232B330BBD28C0284030B400C128FD
:10018000B40101303202B40734088038B500B6013A
:100190003508B7005220003431080C3A0319D7282B
:1001A000063A0319DF28023A0319E528EA28B601BE
:1001B0000130B70052200230B2002F20F028013069
:1001C000B2000230B300BA20F028B6011030B700F8
:1001D0005220F0280130B6003108B7005220F02834
:1001E00000342030CB00C701C801C901CA01420850
:1001F000FA004108F9004008F8003F08F700031032
:10020000771C10294308C70744080318440FC80780
:1002100045080318450FC90746080318460FCA07C3
:10022000CA0CC90CC80CC70CFA0CF90CF80CF70C6A
:10023000CB0BFF280034F701F801F901FA01BC01EA
:10024000BD01BE01BF013B083A043904380403195B
:1002500059292030C0000310B40DB50DB60DB70DEF
:10026000BC0DBD0DBE0DBF0D3B083F02031D422955
:100270003A083E02031D422939083D02031D422966
:1002800038083C02031C53293808BC023908031CF7
:10029000390FBD023A08031C3A0FBE023B08031C8B
:1002A0003B0FBF020314F70DF80DF90DFA0DC00B4B
:1002B0002B293C30840083138A110A126F2B4608C5
:1002C0004A068039D000C61F7029C309C409C50970
:1002D000C609C30A0319C40A0319C50A0319C60AC1
:1002E000CA1F7D29C709C809C909CA09C70A03194C
:1002F000C80A0319C90A0319CA0AF701F801F90162
:10030000FA01CB01CC01CD01CE014A0849044804D1
:1003100047040319BB292030CF000310C30DC40DBF
:10032000C50DC60DCB0DCC0DCD0DCE0D4A084E0220
:10033000031DA42949084D02031DA42948084C02A5
:10034000031DA42947084B02031CB5294708CB020B
:100350004808031C480FCC024908031C490FCD0272
:100360004A08031C4A0FCE020314F70DF80DF90DCD
:10037000FA0DCF0B8D29D01FC829F709F809F90903
:10038000FA09F70A0319F80A0319F90A0319FA0A0C
:100390004B308400831300340130B700B801B90139
:1003A000BA01BC01BD01B31FED290130BC00330807
:1003B000C2003208C1003108C0003008BF00FF3061
:1003C000C600C500C400C300F1207A08B300790854
:1003D000B2007808B1007708B000B708031DF9290A
:1003E000B808031DF929B908031DF929BA0803192A
:1003F0007F2A3308C6003208C5003108C40030081F
:10040000C300CA01C901C8013408C7005F217A08C6
:10041000BA007908B9007808B8007708B7003D0835
:100420003507F8003608FA000318FA0A7808BF0002
:100430007A08C000C2010408C1004210831B4214A4
:100440003308C6003208C5003108C4003008C300B4
:10045000CA01C901C8013408C7005F210008F700BC
:10046000840A0008F800840A0008F900840A0008D9
:10047000FA00410884008313421883177A08C600E3
:100480007908C5007808C4007708C30030307707C2
:10049000F7007808F800003003180130F8077908F1
:1004A000F900003003180130F9077A08FA0000302B
:1004B00003180130FA073F0884008313401883179C
:1004C000770880003D0835078400831336188317AA
:1004D0000008393C0318752A3D083507840083134A
:1004E00036188317073000078000BD0A3A08B300AA
:1004F0003908B2003808B1003708B000ED293C0BCC
:100500008A2A3D08350784008313361883172D3057
:100510008000BD0ABB0103103D0C3B020318BC2A3E
:100520003B08350784008313361883170008BE0084
:100530003B083507F8003608FA000318FA0A3B08AA
:100540003D02FF3E350784008313361883170008E9
:10055000C3007808840083137A1883174308800047
:100560003B083D02FF3E350784008313361883178E
:100570003E088000BB0A8B2A3D08350784008313A0
:100580003618831780013508F8003608F9008A11FB
:100590000A12852B840183131F30830583160317EA
:1005A0000908C039890003131F129F120030031776
:1005B000880083128701880189010313A001A1012A
:1005C000FF30A600831603170908C03989000313FA
:1005D0001F129F1200300138031788008312031383
:1005E0001F179F1783169F1383121F149412A612AE
:1005F000260883168700831226162608831687008E
:100600008312A611260883168700013083129400F6
:100610000030831694000108C7390838810083121E
:1006200090010030F800920000308316920083128F
:100630000317870188018901F80003131F08C339D4
:1006400078049F008E280430B2000130B300BA2035
:10065000B00130080C20B00AF700B100CC200930FE
:100660003002031D292B0130B2000230B300BA2042
:10067000B00130081A20B00AF700B100CC201030C9
:100680003002031D392B9F149F18442B1E08AA010A
:10069000A901A801A700C201C101C0016430BF00C7
:1006A0002A08C6002908C5002808C4002708C30076
:1006B000F1207A08B3007908B2007808B100770811
:1006C000B0007A08B7007908B6007808B500770856
:1006D000B400BB01BA01B901FF30B8001B297A0888
:1006E000AA007908A9007808A8007708A7002A08B6
:1006F000B3002908B2002808B1002708B0000A306A
:10070000B400B6012C30B500CC290C30B200023058
:10071000B300BA20AB012B08023C031C992B2C30F0
:100720002B07840083130008B000B100CC20AB0A73
:060730008B2B432B63003C
:04400E00F220FF3F5E
:00000001FF
;PIC16F887
