:1000000000308A0082290000FF00030E8301A10056
:100010000A08A0008A010408A2007708A300780853
:10002000A4007908A5007A08A6007B08A70083131E
:1000300083128C308400801E1F288C1A36288B1E59
:1000400023280B193928220884002308F7002408E4
:10005000F8002508F9002608FA002708FB00200808
:100060008A00210E8300FF0E7F0E09008A110A12FA
:1000700067288A110A1257280A108A100A11820763
:1000800028340C34013406340A108A100A1182070D
:10009000443441345434413400340A108A100A1173
:1000A00082074534523452344F34523400342D0BCD
:1000B0006328AC0A2C08643C031D6128AC010530A0
:1000C000A9003D3081000B118A110A1223288C1ED1
:1000D00067281A08A800831686018312280886005C
:1000E0000130AD00A908031D8028280B7F2830109F
:1000F000300883168700831207140130A900BC283A
:10010000290B8F282808023C031D8E28B0103008C8
:1001100083168700831287140230A900BC2829089F
:10012000023C031DAC282808033C031DA028301105
:10013000300883168700831207150330A900AB2807
:100140002B082E07840083132F188317280880009C
:10015000AB0A0230A900BC282908033C031DBC28B7
:100160002808043C031DBC28B01130088316870002
:10017000831287150430A9008C128A110A122328D1
:1001800033308400831300080319D3280630F800A5
:10019000F701F70BC928F80BC8287B30F700F70BDD
:1001A000CF28800BC62800343A0EF039F7000F3004
:1001B000080577048800000008140330F700F70BE7
:1001C000DF28081000348810F0308316880083126E
:1001D00008150000081400000808080E0F39BA00BE
:1001E000081000000814F428F52800000808080E7C
:1001F0000F39B900081000308316880083123A0EB8
:10020000F700F030F70577083904F8007808B900EE
:10021000B91BE428371C881037188814000008110F
:1002200000000810380EB9000F30B9053908BA00BF
:10023000D42038080F39B900BA00D4200034003077
:100240008316880083128810081108100F30B3003D
:10025000C0200130B1003108033C031C37290330B2
:10026000BA00D4200530B300C020B10A2B290230D7
:10027000BA00D420B1013108033C031C48293108DD
:100280003C20B200B7013208B800E320B10A3B2994
:100290008A110A12F429340B4E2951294030B50035
:1002A0005229B50101303302B50735088038B60050
:1002B000B7013608B800E320003432080C3A0319BD
:1002C0006829063A03197029023A031976297B290D
:1002D000B7010130B800E3200230B300C02081290B
:1002E0000130B3000230B4004B218129B701103036
:1002F000B800E32081290130B7003208B800E320BC
:1003000081290034840183131F308305831603176A
:10031000871508300313990002309A00A630980020
:10032000903083129800831603170908C03989009A
:1003300003131F129F1200300317880083128701D6
:10034000880189010313A901AA01AB01AC01AD0128
:10035000FF30B000831603170908C0398900031362
:100360001F129F12003003178800831203131F10FF
:100370009412B012300883168700831230163008AA
:10038000831687008312B01130088316870001306E
:10039000831294000030831694000108C039073896
:1003A0008100831290010030F80092000030831623
:1003B000920083120317870188018901C03003135B
:1003C0008B0483168C1683128B163D308100FF3010
:1003D000831687008312B0000030831688008600E1
:1003E0008601831286011F290730B3000130B40053
:1003F0004B21B10131084420B10AF700B2005D2160
:1004000004303102031DFA290330B3000230B40076
:100410004B212908043C031D222A83168C128312C7
:10042000AA012B082A020318212A2A082E07840071
:1004300083132F1883170008B100B2005D21AA0AA8
:10044000112A212A2908053C031D372A0730B30049
:100450000230B4004B21B10131084D20B10AF70040
:10046000B2005D2105303102031D2C2A362A092AEB
:02047000630027
:04400E00F220FF3F5E
:00000001FF
;PIC16F887
