:1000000000308A00622800003F30A6000630A700BA
:100010005B30A8004F30A9006630AA006D30AB00FD
:100020007D30AC000730AD007F30AE006F30AF00E8
:10003000FD30A200A3012308013C031C5C288316A9
:100040008801831222088800A408031D3528263061
:100050002007840083130008B0000030A500831639
:100060008701831230088700422826302107840048
:1000700083130008B0000030A500831687018312A7
:10008000300887000130B00030308400831300084E
:10009000031957280630F800F701F70B4D28F80B25
:1000A0004C287B30F700F70B5328800B4A280310AD
:1000B000A20CA409A30A1B2883168801FF3083120F
:1000C00088000034840183131F30830583160317CF
:1000D0000908C039890003131F129F12003003174B
:1000E000880083128701880189010313A001A101FF
:1000F000A401FF30A500831603170908C039890041
:1001000003131F129F12003003178800831203137A
:100110001F109412A5122508831687008312251636
:100120002508831687008312A511250883168700EA
:100130000130831294000030831694000108C739FF
:1001400008388100831290010030F80092000030DE
:100150008316920083120317870188018901831691
:10016000031387008312A500FC30831688008801E2
:1001700083128801831608178312081BD328A00A4C
:1001800020080A3C031DCB28A001A10A21080A3C33
:10019000031DCB28A1010420831608178312081B16
:1001A000D3280420CC28831688178312881BEE28B6
:1001B000A0032008FF3C031DE6280930A000A1038E
:1001C0002108FF3C031DE6280930A1000420831606
:1001D00088178312881BEE280420E7280420BA28F9
:0201E0006300BA
:04400E00D220FF3F7E
:00000001FF
;PIC16F887
