:1000000000308A00182800003C3084008313000868
:10001000031917280630F800F701F70B0D28F80B25
:100020000C287B30F700F70B1328800B0A280034CC
:10003000840183131F30830583161F149F141F151B
:100040009F1107309C00FF308312A0003F30A100B9
:100050000630A2005B30A3004F30A4006630A5003C
:100060006D30A6007D30A7000730A8007F30A900C2
:100070006F30AA000130B0000230B1000330B2008E
:100080000430B3000530B4000630B500B6000530CA
:10009000B7000430B8000330B9000230BA000130B4
:1000A000BB0083161F149F141F159F1183121F106E
:1000B0008316091283129412A01220088316870057
:1000C000831220162008831687008312A0112008AF
:1000D0008316870001308312940000308316940049
:1000E0000108C73908388100831290010030F800F8
:1000F000920000308316920007309C0005081030F3
:10010000F700F70B812800001C0883120D138316DB
:100110009D0180308800C03087008312A000AF01AD
:10012000A0172008831687008312AE01871BAE0A32
:100130000130BC000420AE08031DB128AF09003017
:10014000A00083168701FF3083128700A0172008C4
:10015000831687008312AE01871BAE0AAE0803190F
:10016000A6280130AC00AB012B08053C031CEB2892
:100170002C08AD00AD090030A00083168701831262
:100180002D088700AF08031DD52830302B078400C9
:10019000831321300007840083130008BD008316F9
:1001A000880183123D088800E42836302B0784003C
:1001B000831321300007840083130008BD008316D9
:1001C000880183123D0888000130BC000420031020
:0A01D000AC0DAB0AB42890286300C0
:02400E003A393D
:00000001FF
;PIC16F877A
