:1000000000308A00032900002F3084008313000889
:10001000031917280630F800F701F70B0D28F80B25
:100020000C287B30F700F70B1328800B0A280034CC
:100030003F30A3000630A4005B30A5004F30A6007F
:100040006630A7006D30A8007D30A9000730AA00F7
:100050007F30AB006F30AC007630AD003630AE0094
:1000600083160811831208118316881083128814CE
:100070008316081083120814831608168312081AB0
:1000800049280130A20083168601831224088600C5
:100090007228831688168312881A56280430A20004
:1000A0008316860183122708860072288316081794
:1000B0008312081B63280730A2008316860183126F
:1000C0002A0886007228831688178312881B7028D6
:1000D0000A30A2008316860183122D08860072283A
:1000E0006330A2003230AF0004208316081183125F
:1000F000081583168810831288108316081083123F
:100100000814831608168312081A8E280230A200DB
:1001100083168601831225088600B6288316881662
:100120008312881A9B280530A20083168601831249
:1001300028088600B628831608178312081BA828EB
:100140000830A2008316860183122B088600B62889
:10015000831688178312881BB428A2018316860190
:10016000831223088600B6286330A2003230AF0025
:100170000420831608118312081583168810831231
:100180008814831608108312081083160816831229
:10019000081AD2280330A20083168601831226088B
:1001A0008600FB28831688168312881ADF280630FB
:1001B000A20083168601831229088600FB28831675
:1001C00008178312081BEC280930A2008316860149
:1001D00083122C088600FB28831688178312881B3D
:1001E000F9280B30A2008316860183122E088600A0
:1001F000FB286330A2003230AF0004202208F80050
:100200008A110A125229840183131F308305831631
:100210001F149F141F159F1107309C00FF3083127D
:10022000A00083161F149F141F159F1183121F1007
:100230008316091283129412A012200883168700D5
:10024000831220162008831687008312A01120082D
:1002500083168700013083129400003083169400C7
:100260000108C73908388100831290010030F80076
:10027000920000308316920007309C000508103071
:10028000F700F70B412900001C0883120D13831699
:100290009D0100308600F8308800860140308312CE
:1002A000860018287808A1002108633C0319582902
:0402B000512963006D
:02400E003A393D
:00000001FF
;PIC16F877A
