:100000000428FF3FFF3FFF3F03178316880104309A
:10001000031385008712031709120313861187152E
:100020000716071708308312A90081240C30A90095
:10003000E3240510851585100630FC00FF30FB0019
:10004000FF30FA00FC0B25282C28FB0B28282B2836
:10005000FA0B2828252822281A30FB00FF30FA0046
:10006000FB0B33283628FA0B332830284230FA00AD
:10007000FA0B3828861185110130A900492670082D
:10008000A3004230A90049267008A400A90149260E
:100090007008A500A90149267008A600A9014926F3
:1000A0007008A70085152608DE3A031D5A288A1510
:1000B00000208A1126087E3A031D61288A153820FF
:1000C0008A112608FE3A031D68288A1563208A11C2
:1000D0002608BE3A031D6D28D0262708FE3A031DC8
:1000E0007228E8262708EF3A031D79288A151C2074
:1000F0008A112708F73A031D7E2800272708BF3AF0
:10010000031D8328182627087F3A031D8828E52524
:100110002608EE3A031D8D28B5262608FC3A031D55
:1001200094288A1554208A1101300605F1007108BF
:10013000003A031D412B0130A8008A1500208A11C6
:100140001530FC00FF30FB00FF30FA00FC0BA92843
:10015000B028FB0BAC28AF28FA0BAC28A928A6289E
:100160006630FB00FF30FA00FB0BB728BA28FA0B09
:10017000B728B4281230FA00FA0BBC28000000009F
:100180002808013A031D3D2B43230030071B013093
:10019000F1007108013A0130031D0030F200003017
:1001A000071A0130F1007108003A0130031D0030D8
:1001B000F0007008F205003087190130F100710875
:1001C000003A0130031D0030F0007208F0050319F9
:1001D0000B298A1500208A110C30FC00FF30FB002F
:1001E000FF30FA00FC0BF528FC28FB0BF828FB2855
:1001F000FA0BF828F528F2283830FB00FF30FA0017
:10020000FB0B03290629FA0B032900299630FA0073
:10021000FA0B0829932643230030071B0130F10015
:100220007108013A0130031D0030F2000030071A56
:100230000130F1007108003A0130031D0030F00078
:100240007008F205003087190130F1007108003A9A
:100250000130031D0030F0007208F0050319522927
:100260008A1500208A110C30FC00FF30FB00FF30A3
:10027000FA00FC0B3C294329FB0B3F294229FA0BCE
:100280003F293C2939293830FB00FF30FA00FB0BAD
:100290004A294D29FA0B4A2947299630FA00FA0BC8
:1002A0004F29932643230030071B0130F1007108CA
:1002B000003A0130031D0030F2000030071A01300F
:1002C000F1007108003A0130031D0030F0007008A1
:1002D000F205003087190130F1007108003A013051
:1002E000031D0030F0007208F0050319DC298A159F
:1002F00063208A110630FC00FF30FB00FF30FA005B
:10030000FC0B83298A29FB0B86298929FA0B86296C
:10031000832980291A30FB00FF30FA00FB0B91295A
:100320009429FA0B91298E294230FA00FA0B96296A
:100330008A1583208A118A1538208A110B30FC0017
:10034000FF30FB00FF30FA00FC0BA729AE29FB0BA6
:10035000AA29AD29FA0BAA29A729A4293330FB0021
:10036000FF30FA00FB0BB529B829FA0BB529B229E1
:100370008830FA00FA0BBA2993262930FC00FF30A6
:10038000FB00FF30FA00FC0BC629CD29FB0BC92965
:10039000CC29FA0BC929C629C329CB30FB00FF3071
:1003A000FA00FB0BD429D729FA0BD429D1292930FB
:1003B000FA00FA0BD929000043230030071B013053
:1003C000F1007108003A0130031D0030F2000030E6
:1003D000071A0130F1007108003A0130031D0030A6
:1003E000F0007008F205003087190130F100710843
:1003F000003A0130031D0030F0007208F0050319C7
:10040000232A8A1500208A110C30FC00FF30FB00E3
:10041000FF30FA00FC0B0D2A142AFB0B102A132ABA
:10042000FA0B102A0D2A0A2A3830FB00FF30FA0096
:10043000FB0B1B2A1E2AFA0B1B2A182A9630FA00DD
:10044000FA0B202A932643230030071B0130F100CA
:100450007108003A0130031D0030F2000030071A25
:100460000130F1007108003A0130031D0030F00046
:100470007008F205003087190130F1007108003A68
:100480000130031D0030F0007208F00503196A2ADC
:100490008A1500208A110C30FC00FF30FB00FF3071
:1004A000FA00FC0B542A5B2AFB0B572A5A2AFA0B38
:1004B000572A542A512A3830FB00FF30FA00FB0B30
:1004C000622A652AFA0B622A5F2A9630FA00FA0B32
:1004D000672A712643230030071B0130F1007108A1
:1004E000003A0130031D0030F2000030071A0130DD
:1004F000F1007108003A0130031D0030F00070086F
:10050000F205003087190130F1007108013A01301D
:10051000031D0030F0007208F0050319B12A8A1596
:1005200000208A110C30FC00FF30FB00FF30FA0085
:10053000FC0B9B2AA22AFB0B9E2AA12AFA0B9E2ABD
:100540009B2A982A3830FB00FF30FA00FB0BA92ABF
:10055000AC2AFA0BA92AA62A9630FA00FA0BAE2A80
:10056000712643230030071B0130F1007108003A67
:100570000130031D0030F2000030071A0130F10095
:100580007108003A0130031D0030F0007008F205D8
:10059000003087190130F1007108003A0130031D65
:1005A0000030F0007208F00503193B2B8A15632018
:1005B0008A110630FC00FF30FB00FF30FA00FC0B14
:1005C000E22AE92AFB0BE52AE82AFA0BE52AE22AC5
:1005D000DF2A1A30FB00FF30FA00FB0BF02AF32A67
:1005E000FA0BF02AED2A4230FA00FA0BF52A8A15A6
:1005F00090208A118A1538208A110B30FC00FF30B8
:10060000FB00FF30FA00FC0B062B0D2BFB0B092B1C
:100610000C2BFA0B092B062B032B3330FB00FF307E
:10062000FA00FB0B142B172BFA0B142B112B883011
:10063000FA00FA0B192B93262930FC00FF30FB003F
:10064000FF30FA00FC0B252B2C2BFB0B282B2B2B24
:10065000FA0B282B252B222BCB30FB00FF30FA0086
:10066000FB0B332B362BFA0B332B302B2930FA00B4
:10067000FA0B382B0000A80A402B8A1563208A1138
:10068000C0283A28422B003003138312071B013085
:10069000F1007108013A0130031D0030F200003012
:1006A000071A0130F1007108003A0130031D0030D3
:1006B000F0007008F205003087190130F100710870
:1006C000013A0130031D0030F00070087205F3009C
:1006D0000030071B0130F1007108003A0130031DA2
:1006E0000030F2000030071A0130F1007108013AC1
:1006F0000130031D0030F0007008F205003087194A
:100700000130F1007108013A0130031D0030F000A2
:100710007208F0057008F3040030071B0130F10087
:100720007108013A0130031D0030F2000030071A51
:100730000130F1007108013A0130031D0030F00072
:100740007008F205003087190130F1007108003A95
:100750000130031D0030F0007208F0057308F0044A
:100760000319802C0030071B0130F1007108013A99
:100770000130031D0030F2000030071A0130F10093
:100780007108003A0130031D0030F0007008F205D6
:10079000003087190130F1007108013A0130031D62
:1007A0000030F0007208F0050319F82B8A150020BC
:1007B0008A110330FC00FF30FB00FF30FA00FC0B15
:1007C000E22BE92BFB0BE52BE82BFA0BE52BE22BBD
:1007D000DF2B0B30FB00FF30FA00FB0BF02BF32B71
:1007E000FA0BF02BED2B1830FA00FA0BF52B7F2CBF
:1007F0000030071B0130F1007108003A0130031D81
:100800000030F2000030071A0130F1007108013A9F
:100810000130031D0030F0007008F2050030871928
:100820000130F1007108013A0130031D0030F00081
:100830007208F00503193C2CE8260330FC00FF3059
:10084000FB00FF30FA00FC0B262C2D2CFB0B292C77
:100850002C2CFA0B292C262C232C0B30FB00FF30E0
:10086000FA00FB0B342C372CFA0B342C312C1830BB
:10087000FA00FA0B392C7F2C0030071B0130F100F5
:100880007108013A0130031D0030F2000030071AF0
:100890000130F1007108013A0130031D0030F00011
:1008A0007008F205003087190130F1007108003A34
:1008B0000130031D0030F0007208F00503197F2C91
:1008C000D0260330FC00FF30FB00FF30FA00FC0BA9
:1008D0006A2C712CFB0B6D2C702CFA0B6D2C6A2C76
:1008E000672C0B30FB00FF30FA00FB0B782C7B2CC5
:1008F000FA0B782C752C1830FA00FA0B7D2C432B50
:1009000008008A1572208A118A1572208A118A15A8
:1009100072208A112908A0002908840084178011F8
:100920000011001080130013801200128413801134
:1009300000110010801300138012001280160016A0
:10094000801580118A1572208A11801580118A15F0
:1009500072208A11801580118A1572208A118016E2
:100960000012801580118A1572208A11800180166C
:100970008015801180018017801580118A157220E2
:100980008A11800100168015801180018015801168
:100990008A1572208A118001801580110016801539
:1009A00080118A1572208A1180018015801100162D
:1009B000801600178017801580118A1572208A1101
:1009C0000130A100080003138312200884002908C5
:1009D0000319EA2C801100118013001380120012F9
:1009E000A91B8017291B0017A91A8016291A00169F
:1009F00021080319FD2C0011FE2C001580158A1505
:100A0000D0208A1129080319052D801100118013A7
:100A1000001380120012A919801729190017A918AC
:100A200080162918001621080319182D0011192DF8
:100A3000001580158A15D0208A118011210803190C
:100A4000252D8A1572208A11282D8A15BD208A111C
:100A5000080003138312FB01FA01F9018030F8004A
:100A6000FD01F11F392DF109F009F00A0319F10A0E
:100A7000FD0AF51F412DF509F409F40A0319F50AD9
:100A8000FD0AF10CF00C031C4E2D7408F9077508D3
:100A90000318750FFA070318FB0A0310F01F562DF1
:100AA0007408FA070318FB0A7508FB07FB0CFA0C1D
:100AB000F90CF80C031C412D7D1C692DFB09FA096A
:100AC000F909F809F80A0319F90A0319FA0A0319C6
:100AD000FB0A7B08F3007A08F2007908F100780835
:100AE000F00000000800031383161208013FF00015
:100AF000F1010318F10A83123008F400F5012925E9
:100B00000630F2007008F4007108F500720803194D
:100B10008E2DF50CF40CF513FF3F872D7408F000B3
:100B2000F00D7010F00D7010F00D7010F00D7010D1
:100B300030307005F3007408F0007508F100F10C16
:100B4000F00CF113F10CF00CF113700895000F305C
:100B50009705730897040800031383161208013FD2
:100B6000F000F1010318F10A83123008F400F501D6
:100B700029250630F2007008F4007108F5007208AB
:100B80000319C72DF50CF40CF513FF3FC02D7408A5
:100B9000F000F00D7010F00D7010F00D7010F00DF1
:100BA000701030307005F3007408F0007508F10023
:100BB000F10CF00CF113F10CF00CF11370089B0028
:100BC0000F309D0573089D0408001A30031383122B
:100BD000FB00FF30FA00FB0BEE2DF12DFA0BEE2D92
:100BE000EB2DE730FA00FA0BF32D000087160630E4
:100BF000FB00FF30FA00FB0BFE2D012EFA0BFE2D41
:100C0000FB2D2C30FA00FA0B032E00000000871297
:100C10003430FB00FF30FA00FB0B0F2E122EFA0BC4
:100C20000F2E0C2ECF30FA00FA0B142E0000080005
:100C30001A3003138312FB00FF30FA00FB0B212E46
:100C4000242EFA0B212E1E2EE730FA00FA0B262E48
:100C5000000087160330FB00FF30FA00FB0B312E3B
:100C6000342EFA0B312E2E2E9630FA00FA0B362E39
:100C700087123430FB00FF30FA00FB0B402E432E6E
:100C8000FA0B402E3D2ECF30FA00FA0B452E000015
:100C9000080003138312AA010130AB00A20108303F
:100CA000220203186E2E2B082905F10071082B066D
:100CB000031D5C2E85145D2E85100514AA0CAA1345
:100CC000003005190130F1007108013A031D692E49
:100CD000AA170510AB0D2B10A20A4F2E2A08F00000
:100CE0000800E8261530FC00FF30FB00FF30FA005A
:100CF000FC0B7B2E822EFB0B7E2E812EFA0B7E2E82
:100D00007B2E782E6630FB00FF30FA00FB0B892E1D
:100D10008C2EFA0B892E862E1230FA00FA0B8E2EAC
:100D2000000000000800D0261530FC00FF30FB005A
:100D3000FF30FA00FC0B9D2EA42EFB0BA02EA32E41
:100D4000FA0BA02E9D2E9A2E6630FB00FF30FA0083
:100D5000FB0BAB2EAE2EFA0BAB2EA82E1230FA00E8
:100D6000FA0BB02E000000000800031383121210CB
:100D7000921012146330831692008A15CA208A11C9
:100D80001210921012146330831692008A15C42038
:100D90008A118A159D208A118A15B5208A110800AA
:100DA0000317831689010313081088108610061193
:100DB00087100711831287140715E630B0007325DA
:100DC000E630B000AC25081488108610061508001F
:100DD0000317831689010313081088108610061163
:100DE00087100711831287140715E630B0007325AA
:100DF000E630B000AC2508108814861406110800EF
:100E00000317831689010313081088108610061132
:100E100087100711831287100715E630B00073257D
:100E2000E630B000AC25081488100800FF3FFF3FF3
:100E3000FF3FFF3FFF3FFF3FFF3FFF3FFF3FFF3FC2
:100E4000FF3FFF3FFF3FFF3FFF3FFF3FFF3FFF3FB2
:100E5000FF3FFF3FFF3FFF3FFF3FFF3FFF3FFF3FA2
:100E6000FF3FFF3FFF3FFF3FFF3FFF3FFF3FFF3F92
:100E7000FF3FFF3FFF3FFF3FFF3FFF3FFF3FFF3F82
:100E8000FF3FFF3FFF3FFF3FFF3FFF3FFF3FFF3F72
:100E9000FF3FFF3FFF3FFF3FFF3FFF3FFF3FFF3F62
:100EA000FF3FFF3FFF3FFF3FFF3FFF3FFF3FFF3F52
:100EB000FF3FFF3FFF3FFF3FFF3FFF3FFF3FFF3F42
:100EC000FF3FFF3FFF3FFF3FFF3FFF3FFF3FFF3F32
:100ED000FF3FFF3FFF3FFF3FFF3FFF3FFF3FFF3F22
:100EE000FF3FFF3FFF3FFF3FFF3FFF3FFF3FFF3F12
:100EF000FF3FFF3FFF3FFF3FFF3FFF3FFF3FFF3F02
:100F0000FF3FFF3FFF3FFF3FFF3FFF3FFF3FFF3FF1
:100F1000FF3FFF3FFF3FFF3FFF3FFF3FFF3FFF3FE1
:100F2000FF3FFF3FFF3FFF3FFF3FFF3FFF3FFF3FD1
:100F3000FF3FFF3FFF3FFF3FFF3FFF3FFF3FFF3FC1
:100F4000FF3FFF3FFF3FFF3FFF3FFF3FFF3FFF3FB1
:100F5000FF3FFF3FFF3FFF3FFF3FFF3FFF3FFF3FA1
:100F6000FF3FFF3FFF3FFF3FFF3FFF3FFF3FFF3F91
:100F7000FF3FFF3FFF3FFF3FFF3FFF3FFF3FFF3F81
:100F8000FF3FFF3FFF3FFF3FFF3FFF3FFF3FFF3F71
:100F9000FF3FFF3FFF3FFF3FFF3FFF3FFF3FFF3F61
:100FA000FF3FFF3FFF3FFF3FFF3FFF3FFF3FFF3F51
:100FB000FF3FFF3FFF3FFF3FFF3FFF3FFF3FFF3F41
:100FC000FF3FFF3FFF3FFF3FFF3FFF3FFF3FFF3F31
:100FD000FF3FFF3FFF3FFF3FFF3FFF3FFF3FFF3F21
:100FE000FF3FFF3FFF3FFF3FFF3FFF3FFF3FFF3F11
:100FF000FF3FFF3FFF3FFF3FFF3FFF3FFF3FFF3F01
:101000000317831689010313081088108610061130
:1010100087100711831287140715E630B0008A1174
:1010200073258A15E630B0008A11AC258A1508149C
:10103000881086140611080003178316890103130C
:101040000810881086100611871007118312871464
:101050000711E630B0008A1173258A15E630B0001A
:101060008A11AC258A150810881486140611080008
:1010700003178316890103130810881086100611C0
:1010800087100711831287140715E630B0008A1104
:1010900073258A15E630B0008A11AC258A15081030
:1010A0008814861006150800AD20A5208030B000F9
:1010B0008A1173258A158030B0008A11AC258A15F3
:1010C000871007110800803003138312B0008A11C3
:1010D00073258A158030B0008A11AC258A158710D7
:1010E000071108000F3003138312FB00FF30FA00D2
:1010F000FB0B7B287E28FA0B7B2878283E30FA00F1
:10110000FA0B8028080003138312A2012208143C62
:10111000031C8F288A11E5258A15A20A8628080053
:1011200003138312A2012208143C031C9C288A1179
:1011300018268A15A20A932808000313831607119C
:10114000831212150C3097040800031383168714BA
:1011500083121211F0309D05080003138316071542
:1011600083121211F03097050800031383168710BD
:10117000831212150C309D040800213003138312D2
:10118000FA00FA0BC1280800031383129B011D12F9
:101190009D1208000313831295011712971208007D
:1011A000000000000800FF3FFF3FFF3FFF3FFF3F01
:04400E00F22FFFFF8F
:00000001FF
