:1000000000308A00B9290000FF00030E8301A1001F
:100010000A08A0008A010408A2007708A300780853
:10002000A4007908A5007A08A6007B08A70083131E
:1000300083128C308400801D1F288C1932282208DE
:1000400084002308F7002408F8002508F900260892
:10005000FA002708FB0020088A00210E8300FF0E0B
:100060007F0E09008A110A1200290A108A100A114B
:10007000820728340C34013406340A108A100A111D
:10008000820773346C34613476346534313400342F
:100090000A108A100A118207723465346334693495
:1000A00065347634653420343A34203400345308CF
:1000B000F801520203185F285208F7006B28F70175
:1000C0000830D400D20DF70D530877020318F7005B
:1000D000F80DD40B62280034F030831688008312A8
:1000E00008150000081400000808080E0F39DA008F
:1000F00008100000081400000808080E0F39D90085
:10010000081000308316880083125A0EF700F03072
:10011000F70577085904F80000345A0EF039F70053
:100120000F3008057704880000000814972808108D
:10013000003488106C207808D900D91B9A28571CE5
:100140008810571888140000081100000810580E75
:10015000D9000F30D9055908DA008D2058080F3919
:10016000D900DA008D200034533084008313000856
:100170000319C8280130F800F701F70BBD28F80B68
:10018000BC284A30F700F70BC328C628800BBA28D2
:100190000034540BCC28CF284030D500D028D501CE
:1001A00001305302D50755088038D600D7015608CC
:1001B000D8009920003452080C3A0319E628063A70
:1001C0000319EE28023A0319F428F928D70101305F
:1001D000D80099200230D300B420FF280130D3008A
:1001E0000230D400C920FF28D7011030D800992050
:1001F000FF280130D7005208D8009920FF2800348A
:100200008316941A08298312BC011318BC1783168D
:1002100083123C08BC0ACA00CA080319BB14BB1CE1
:10022000B5294A087F3C031C9F294A0B1F298316C6
:10023000141C182983121308C9004908AA004A0887
:10024000023C031D9E298316141C242983121308C3
:10025000C9002B302A078400831349088000BB1093
:100260002B302A07840083130008CB004B08CC00F6
:100270001F30CD0020304D1E3030CE004C08F7002E
:10028000CC1F4929F709F70A7708CC002D30CE009A
:10029000CD174C08D2006430D30057207708CC002B
:1002A00030307807CF004C08D2000A30D3005720F6
:1002B00030307707D10030307807D0004E08F70093
:1002C000CD1D6429CD1F4D114D1A7129CD1F8C29CB
:1002D0004D198C297708CF00CD188C297708D000CC
:1002E0008C2930304F02031D8C297708CF00203035
:1002F000CE00CD1D7F294D11CD14CD1FCD10303036
:100300005002031D8C297708D0002030CF00CD1D6E
:100310007F29CD10CD1F4D104D1D91294E08D200C3
:10032000DB20CD1C96294F08D200DB204D1C9B29D9
:100330005008D200DB205108D200DB20B5294A0842
:10034000803C031DB5292B302A0784008313000845
:10035000CB004B08CC004C08930014168C1183166C
:100360001418B029F8018312BB108C118A110A12DB
:100370001F28840183131F308305193083169900C9
:10038000A6309800903083129800A915290883168A
:10039000870083122916290883168700A03093004E
:1003A00036308312940083161F149F141F159F115B
:1003B00007309C00FF308312A9003B10BB100330B4
:1003C000BC000030831688008312881008110810C2
:1003D000A8018B1BA8178B130F30D300B420A81BC8
:1003E0008B170130BE003E08033C031C0B2AA801FA
:1003F0008B1BA8178B130330DA008D20A81B8B17DB
:10040000A8018B1BA8178B130530D300B420A81BA1
:100410008B17BE0AF329A8018B1BA8178B13023078
:10042000DA008D20A81B8B17BE013E08033C031C7D
:10043000282A3E083520BF00A8018B1BA8178B1364
:10044000D7013F08D8009920A81B8B17BE0A152A90
:1004500083161F149F141F159F1183121F108316DC
:1004600009120108C7390838810083129001003051
:10047000F800920000308316920007309C000508B7
:100480000330F700F70B422A1C0883120D13831662
:100490009D01C03083128B0483168C158312BE011C
:1004A0003E083D20003803195F2ABE0AA8018B1BB5
:1004B000A8178B13D200DB20A81B8B17502AA8018A
:1004C0008B1BA8178B130130D3000230D400C92036
:1004D000A81B8B17BE013E084820003803197A2A52
:1004E000BE0AA8018B1BA8178B13D200DB20A81B08
:0804F0008B176B2A7A2A6300C6
:02400E003A393D
:00000001FF
;PIC16F877A
