:1000000000308A0004280000840183131F30830518
:1000100083161F149F141F159F1107309C00FF307B
:100020008312A00083161F149F141F159F118312A3
:100030001F108316091283129412A012200883162F
:100040008700831220162008831687008312A011D0
:100050002008831687000130831294000030831635
:10006000940083129001F8009200003083169200F1
:1000700007309C0005081030F700F70B3D28000002
:100080001C0883120D1383169D010108C03907381F
:1000900081003D3083128100F03083168800880192
:1000A000831288010108A100A108031D6A28A20A81
:1000B0002208643C031D6828A201A30A23083C3CD3
:1000C000031D6328A30183160810013083128806DC
:0800D0003D308100522863005D
:02400E003A393D
:00000001FF
;PIC16F877A
