:1000000000308A008C2C0000FF00030E8301A10049
:100010000A08A0008A010408A2007708A300780853
:10002000A4007908A5007A08A6007B08A70083131E
:1000300083128C308400801E1F288C1A32282208DC
:1000400084002308F7002408F8002508F900260892
:10005000FA002708FB0020088A00210E8300FF0E0B
:100060007F0E09008A110A1235288C1E35281A08BD
:10007000AA00AB08031D48282A08573C031D432843
:100080000130AB0047282A08B0002A08B3006328D3
:100090002B0B63282A080D3C031D5428AB010130AB
:1000A000AC002D08AF0063282A08503C031D5A28D5
:1000B0002D08AE002D082807840083132918831704
:1000C0002A088000AD0A8C128A110A121F28F70133
:1000D000F8013E0803103F18F707F70CF80CBF189B
:1000E000F707F70CF80C3F19F707F70CF80CBF19D6
:1000F000F707F70CF80C3F1AF707F70CF80CBF1AC4
:10010000F707F70CF80C3F1BF707F70CF80CBF1BB1
:10011000F707F70CF80C0034B901BA01B101B201CC
:100120002E08AF02B8012D0838020318B329380889
:10013000280784008313291883170008533C0319E8
:10014000AB28380828078400831329188317000870
:10015000503C031DAE28B80A0130B9003808280702
:10016000F8002908FA000318FA0A3808280784005A
:1001700083132918831700080F39BE0078088400FC
:1001800083137A1883173E088000390B3C292F0807
:10019000043C031D0E29BA08031DED283808280762
:1001A000F8002908FA000318FA0A7808BB007A0850
:1001B000BC00380828078400831329188317000817
:1001C000BE006430BF0067203B08840083133C18E6
:1001D000831778088000BA0A0D293A0B0D293808D0
:1001E0002807F8002908FA000318FA0A7808BB0063
:1001F0007A08BC003808280784008313291883175D
:100200000008BE000A30BF0067203B08840083134B
:100210003C18831778088000BA0A33292F08033C5A
:10022000031D3329BA08031D332938082807F800AD
:100230002908FA000318FA0A7808BB007A08BC00FB
:100240003808280784008313291883170008BE0084
:100250000A30BF0067203B08840083133C188317D3
:1002600078088000BA0A3808280784008313291800
:1002700083170008B207B1292E08033C031D81290A
:10028000B808031D612938082807F8002908FA0072
:100290000318FA0A7808BB007A08BC003808280757
:1002A00084008313291883170008BE006430BF0040
:1002B00067203B08840083133C188317780880006C
:1002C0008029380B802938082807F8002908FA0007
:1002D0000318FA0A7808BB007A08BC003808280717
:1002E00084008313291883170008BE000A30BF005A
:1002F00067203B08840083133C188317780880002C
:10030000A9292E08023C031989292E08043C031D43
:10031000A929B808031DA92938082807F8002908C1
:10032000FA000318FA0A7808BB007A08BC003808FB
:10033000280784008313291883170008BE000A3099
:10034000BF0067203B08840083133C18831778089C
:1003500080003808280784008313291883170008B1
:10036000B107B80A9328AC01BA01B901AD018A11ED
:100370000A12202D3230B90039308400831300086E
:100380000319CF290630F800F701F70BC529F80B40
:10039000C4297B30F700F70BCB29800BC22900342E
:1003A0003008B80031083B3C031CFB2932083B3CB9
:1003B000031CFB298316081083120810831688106B
:1003C000831288108316081183120815831688116A
:1003D0008312881583160812831208168316881252
:1003E0008312881683160813831208138316881342
:1003F00083128813E02BB108031D272A3208433CDF
:100400000318272A3208BB3C031C272A831608102E
:10041000831208148316881083128810831608111B
:100420008312081583168811831288158316081203
:1004300083120816831688128312881683160813EF
:10044000831208178316881383128813E02B310850
:100450003B3C031C502A3208C33C0318502A831625
:1004600008108312081483168810831288108316CC
:1004700008118312081183168811831288118316BC
:1004800008128312081283168812831288128316A8
:100490000813831208178316881383128813E02B1E
:1004A0003108433C03187B2A3108BB3C031C7B2AE0
:1004B000320F7B2A831608108312081483168810C3
:1004C0008312881083160811831208158316881169
:1004D0008312881183160812831208168316881255
:1004E0008312881283160813831208178316881341
:1004F00083128813E02B3108C33C0318A42A320866
:10050000C33C0318A42A831608108312081083160C
:100510008810831288108316081183120815831619
:100520008811831288118316081283120816831605
:1005300088128312881283160813831208138316F5
:10054000881383128813E02B310FCF2A3208433CE3
:100550000318CF2A3208BB3C031CCF2A831608108D
:1005600083120814831688108312881483160811C6
:1005700083120815831688118312881183160812B6
:1005800083120816831688128312881283160813A2
:10059000831208178316881383128817E02B3108FB
:1005A000C33C0318F82A32083B3C031CF82A831684
:1005B0000810831208148316881083128814831677
:1005C000081183120811831688118312881183166B
:1005D0000812831208128316881283128812831657
:1005E0000813831208178316881383128817E02BC9
:1005F0003108433C0318242B3108BB3C031C242B3B
:10060000B208031D242B83160810831208148316C6
:100610008810831288148316081183120815831614
:100620008811831288158316081283120816831600
:1006300088128312881683160813831208178316EC
:10064000881383128817E02B3808413C031D4B2B7D
:1006500083160810831208108316881083128810DE
:1006600083160811831208158316881183128815C2
:1006700083160812831208168316881283128812B2
:10068000831608138312081783168813831288139E
:10069000B801BA21E02B3808443C031D722B8316A5
:1006A000081083120810831688108312881083168E
:1006B0000811831208158316881183128811831676
:1006C000081283120816831688128312881683165E
:1006D0000813831208178316881383128817B8012A
:1006E000BA21E02B3808433C031D992B83160810D0
:1006F0008312081483168810831288108316081139
:100700008312081183168811831288118316081228
:10071000831208168316881283128816831608130C
:10072000831208178316881383128817B801BA2119
:10073000E02B3808423C031DC02B8316081083129F
:1007400008148316881083128814831608118312E4
:1007500008118316881183128811831608128312D8
:1007600008168316881283128812831608138312C0
:1007700008178316881383128813B801BA21E02B57
:1007800083160810831208108316881083128810AD
:100790008316081183120811831688118312881199
:1007A0008316081283120812831688128312881285
:1007B0008316081383120813831688138312881371
:1007C0008A110A12212DB801B808031D332C3008F4
:1007D0004E3C031DFA2B3412340883168700831213
:1007E0000716B4123408831687008312871201306B
:1007F000B800322C3008463C031D0D2C341234084E
:100800008316870083120716B412340883168700F4
:10081000831287160130B800322C33084D3C031D7B
:10082000202C341034088316870083120714B41068
:10083000340883168700831287100130B800322CE9
:100840003308453C031D322C3410340883168700CE
:1008500083120714B4103408831687008312871498
:100860000130B800892C0130B800B8080319892C70
:1008700033084E3C0319482C3308463C0319482CD6
:1008800033084D3C0319482C3308453C031D7C2C90
:100890008316851483128518552C34123408831658
:1008A000870083120712B8017B2C8316051583126B
:1008B0000519622C3412340883168700831207123C
:1008C000B8017B2C831685168312851A6F2C341081
:1008D00034088316870083120710B8017B2C831617
:1008E00005178312051B7B2C3410340883168700F0
:1008F00083120710B801892C34123408831687003C
:1009000083120712341034088316870083120710ED
:10091000B8018A110A12612D840183131F308305E7
:100920008316031787152A300313990000309A00A5
:10093000A630980090308312980083160317090898
:10094000C039890003131F129F120030031788005B
:1009500083128701880189010313AA01AB01AC014D
:10096000AD01AE01AF01B0017F30B100B200FF3088
:10097000B400B501B601B701831603170908C039E1
:10098000890003131F129F1200300317880083127F
:1009900003131F109412B4123408831687008312B5
:1009A00034163408831687008312B4113408831672
:1009B00087000130831294000030831694000108F0
:1009C000C73908388100831290010030F800920086
:1009D0000030831692008312031787018801890172
:1009E00083160313880087008312B40083168600E1
:1009F00085008312B4008316870183128701831652
:100A00008601831286018316850183128501831670
:100A1000880183128801C0308B048C1E0D2D1A08AA
:100A2000AA002A08313C031D0D2DAA0183160510CA
:100A30008312051483168C1683122C0B202D8C2800
:100A4000D02930084B3C031D302D34103408831658
:100A50008700831207148316051283120512602D76
:100A60003008493C031D3D2DB4113408831687001E
:100A7000831287150130B700602D3008483C031DF4
:100A8000492DB5080319462D0030472D0130B5001A
:100A9000602D30084C3C031D542DB60A3608083C26
:100AA000031D532DB603602D30084A3C031D5F2DF6
:100AB000B60336080A3C031D5E2DB60A602DB00150
:100AC000E32B370B6F2D83168515831285196F2D38
:100AD000B41134088316870083128711B701350BD0
:100AE000D12D360B7D2D16309500831609108910F7
:100AF0000911013083128900D02D3608023C031DF4
:100B00008B2D2C30950083160910891009110230A5
:100B100083128900D02D3608033C031D992D4330E4
:100B2000950083160910891009110330831289007A
:100B3000D02D3608043C031DA72D5930950083168F
:100B4000091089100911043083128900D02D36084C
:100B5000053C031DB52D6F309500831609108910D3
:100B60000911053083128900D02D3608063C031D7B
:100B7000C32D86309500831609108910091106309F
:100B800083128900D02D3608073C031DD02D9C30E0
:100B90009500831609108910091107308312890006
:080BA000D22D95011D2D63000B
:04400E00E220FF3F6E
:00000001FF
;PIC16F887
