:1000000000308A00182800002C3084008313000878
:10001000031917280630F800F701F70B0D28F80B25
:100020000C287B30F700F70B1328800B0A280034CC
:10003000840183131F308305831603170908C03911
:10004000890003131F129F120030031788008312C8
:10005000870188018901FF300313A0003F30A10010
:100060000630A2005B30A3004F30A4006630A5002C
:100070006D30A6007D30A7000730A8007F30A900B2
:100080006F30AA00AB01831603170908C039890035
:1000900003131F129F1200300317880083120313EB
:1000A0001F109412A01220088316870083122016B6
:1000B0002008831687008312A0112008831687006A
:1000C0000130831294000030831694000108C73970
:1000D00008388100831290010030F800920000304F
:1000E0008316920083120317870188018901FF306C
:1000F00083160313860000308800880183122108CC
:10010000880083160614831206188F283230AC003C
:100110000420AB0A2B080A3C031D8F28AB01831671
:100120008614831286189E283230AC000420AB035C
:100130002B08FF3C031D9E280930AB0021302B0704
:10014000840083130008AC008316880183122C08F6
:100150008800831606148312061CA92883168614A9
:100160008312861CAE283230AC0004208128630044
:04400E00F220FF3F5E
:00000001FF
;PIC16F887
