:1000000000308A00CE2800000A108A100A118207E8
:1000100028340C3401340634313084008313000852
:1000200003191F280630F800F701F70B1528F80B05
:1000300014287B30F700F70B1B28800B12280034A4
:10004000380EF039F7000F300805770488000000FB
:1000500008140330F700F70B2B2808100034881021
:10006000F030831688008312081500000814000081
:100070000808080E0F39B8000810000008144028BE
:10008000412800000808080E0F39B700081000309A
:10009000831688008312380EF700F030F7057708D2
:1000A0003704F8007808B700B71B3028351C8810D3
:1000B000351888140000081100000810360EB7002B
:1000C0000F30B7053708B800202036080F39B700C1
:1000D000B800202000340030831688008312881076
:1000E000081108100F30B1000C200130AF002F08AC
:1000F000033C031C83280330B80020200530B100E6
:100100000C20AF0A77280230B8002020AF012F085A
:10011000033C031C94282F080420B000B5013008CC
:10012000B6002F20AF0A87288A110A122D29320B18
:100130009A289D284030B3009E28B3010130310237
:10014000B30733088038B400B5013408B6002F2057
:10015000003430080C3A0319B428063A0319BC28B5
:10016000023A0319C228C728B5010130B6002F2072
:100170000230B1000C20CD280130B1000230B200B5
:100180009720CD28B5011030B6002F20CD280130A2
:10019000B5003008B6002F20CD2800348401831329
:1001A0001F30830583161F149F141F159F110730DE
:1001B0009C00FF308312A0003130A1003230A20039
:1001C0003330A3003430A4003530A5003630A6000B
:1001D0003730A7003830A8003930A9003030AA00E5
:1001E00083161F149F141F159F1183121F1083164F
:1001F000091283129412A01220088316870083121A
:1002000020162008831687008312A0112008831669
:100210008700013083129400003083169400010897
:10022000C73908388100831290010030F80092002D
:1002300000308316920007309C0005081030F7004C
:10024000F70B202900001C0883120D1383169D0153
:10025000B03087008312A0006B280830B100013055
:10026000B20097202A08B000A9200830B10002305F
:10027000B20097202A08B000A9200030A000831601
:1002800087014030831287002017200883168700DB
:100290008312AC01071BAC0A6430B1000C20AC081F
:1002A000031D70290830B1000130B20097202130C1
:1002B0002B07840083130008AF00B000A920AB0A0D
:1002C0002B080A3C031D6529AB0120172008831663
:1002D00087008312AC01071BAC0AAC08031965291F
:1002E0000030A00083168701803083128700A0179A
:1002F0002008831687008312AD01871BAD0A643086
:10030000B1000C20AD08031DA3290830B100023054
:10031000B200972021302E07840083130008AF001D
:10032000B000A920AE0A2E080A3C031D9829AE0190
:10033000A0172008831687008312AD01871BAD0A22
:0A034000AD08031998293D29630058
:02400E003A393D
:00000001FF
;PIC16F877A
