:1000000000308A00CE2800000A108A100A118207E8
:1000100028340C340134063457308400831300082C
:1000200003191F280630F800F701F70B1528F80B05
:1000300014287B30F700F70B1B28800B12280034A4
:100040005E0EF039F7000F300805770488000000D5
:1000500008140330F700F70B2B2808100034881021
:10006000F030831688008312081500000814000081
:100070000808080E0F39DE00081000000814402898
:10008000412800000808080E0F39DD000810003074
:100090008316880083125E0EF700F030F7057708AC
:1000A0005D04F8007808DD00DD1B30285B1C88103B
:1000B0005B18881400000811000008105C0EDD00B9
:1000C0000F30DD055D08DE0020205C080F39DD0003
:1000D000DE00202000340030831688008312881050
:1000E000081108100F30D7000C200130D50055083A
:1000F000033C031C83280330DE0020200530D7009A
:100100000C20D50A77280230DE002020D5015508C2
:10011000033C031C942855080420D600DB01560834
:10012000DC002F20D50A87288A110A127A29580B59
:100130009A289D284030D9009E28D90101305702C5
:10014000D90759088038DA00DB015A08DC002F2073
:10015000003456080C3A0319B428063A0319BC288F
:10016000023A0319C228C728DB010130DC002F2026
:100170000230D7000C20CD280130D7000230D80043
:100180009720CD28DB011030DC002F20CD28013056
:10019000DB005608DC002F20CD28003484018313B7
:1001A0001F30830583161F149F141F159F110730DE
:1001B0009C00FF308312A0005430A1006830A200E0
:1001C0006130A3006E30A4007930A5006130A60034
:1001D0007330A7006930A8007430A9004130AA002C
:1001E0006B30AB00AC006130AD007230AE006130FE
:1001F000AF006E30B0006130B1007230B2006130DB
:10020000B3007430B4006830B5006930B6007730A0
:10021000B7006130B8007430B9003530BA003830FA
:10022000BB003330BC003130BD003030BE00353053
:10023000BF003030C000C1003230C2003430C300D3
:100240004930C4006E30C5006430C6007530C70048
:100250007330C8007430C9007230CA006930CB00F6
:100260006130CC006C30CD002030CE004530CF0066
:100270006C30D0006530D1006330D2002E30D30016
:1002800083161F149F141F159F1183121F108316AE
:10029000091283129412A012200883168700831279
:1002A00020162008831687008312A01120088316C9
:1002B00087000130831294000030831694000108F7
:1002C000C73908388100831290010030F80092008D
:1002D00000308316920007309C0005081030F700AC
:1002E000F70B702900001C0883120D1383169D0163
:1002F00083126B280530D7000130D8009720D40135
:100300005408083C031C9129FA30D7000C202130F6
:100310005407840083130008D500D600A920D40A0E
:1003200080290130D7000230D8009720D40154082A
:100330000F3C031CA829FA30D7000C202A305407A0
:10034000840083130008D500D600A920D40A972979
:100350000830D500FA30D7000C20D50BAA290C3074
:10036000D600A9200430D7000130D8009720D4014E
:100370005408093C031CC929FA30D7000C203A3034
:100380005407840083130008D500D600A920D40A9E
:10039000B8290130D7000230D8009720D401540882
:1003A0000F3C031CE029FA30D7000C2044305407DE
:1003B000840083130008D500D600A920D40ACF29D1
:1003C0000830D500FA30D7000C20D50BE229792966
:0203D0006300C8
:02400E003A393D
:00000001FF
;PIC16F877A
