:1000000000308A00DC2800000A108A100A118207DA
:1000100028340C34013406340A108A100A1182077D
:100020005434483441344E345934413453344934CF
:10003000543400342D3084008313000803192D2814
:100040000630F800F701F70B2328F80B22287B3045
:10005000F700F70B2928800B20280034340EF039E4
:10006000F7000F30080577048800000008140330FB
:10007000F700F70B3928081000348810F030831689
:100080008800831208150000081400000808080EF4
:100090000F39B4000810000008144E284F28000043
:1000A0000808080E0F39B3000810003083168800C6
:1000B0008312340EF700F030F70577083304F800A8
:1000C0007808B300B31B3E28311C881031188814FF
:1000D0000000081100000810320EB3000F30B30505
:1000E0003308B4002E2032080F39B300B4002E209C
:1000F000003400308316880083128810081108101D
:100100000F30AD001A200130AB002B08033C031C5C
:1001100091280330B4002E200530AD001A20AB0A20
:1001200085280230B4002E20AB012B08033C031CB1
:10013000A2282B080420AC00B1012C08B2003D20FD
:10014000AB0A95288A110A1236292E0BA828AB284B
:100150004030AF00AC28AF0101302D02AF072F08AF
:100160008038B000B1013008B2003D2000342C08C6
:100170000C3A0319C228063A0319CA28023A03198D
:10018000D028D528B1010130B2003D200230AD00A9
:100190001A20DB280130AD000230AE00A520DB289C
:1001A000B1011030B2003D20DB280130B1002C0835
:1001B000B2003D20DB280034840183131F30830507
:1001C00083161F149F141F159F1107309C00FF30CA
:1001D0008312A0005430A1004830A2004130A30097
:1001E0004E30A4005930A5004130A6005330A7007E
:1001F0004930A8005430A90083161F149F141F15FE
:100200009F1183121F108316091283129412A012D9
:100210002008831687008312201620088316870083
:100220008312A011200883168700013083129400E6
:100230000030831694000108C73908388100831202
:1002400090010030F80092000030831692000730D1
:100250009C0005081030F700F70B2C2900001C0843
:1002600083120D1383169D01831279284130AC004F
:10027000B7203030AC00B7204130AC00B720303070
:10028000AC00B7200F30AD000230AE00A5205A30D0
:10029000AC00B7200230AB00FA30AD001A20AB0B37
:1002A0004C290C30AC00B7200430AD000130AE005A
:1002B000A520AB012B080C20AB0AF700AC00B7203F
:1002C00009302B02031D5A290430AD000230AE0064
:1002D000A520AA012A08083C031C7F290230AB0094
:1002E000FA30AD001A20AB0B702921302A078400A8
:1002F00083130008AB00AC00B720AA0A6A297F2943
:02030000630098
:02400E003A393D
:00000001FF
;PIC16F877A
