:1000000000308A003D280000FF00030E8301A1009C
:100010000A08A0008A010408A2007708A300780853
:10002000A4007908A5007A08A6007B08A70083131E
:1000300083128C308400801E1F288C1A32282208DC
:1000400084002308F7002408F8002508F900260892
:10005000FA002708FB0020088A00210E8300FF0E0B
:100060007F0E09008A110A1235288C1E35281A08BD
:10007000AE008C128A110A121F28840183131F30CC
:100080008305713083168F000F08031787110C301A
:1000900003139900A23098009030831298008316C1
:1000A00003170908C039890003131F129F1200307B
:1000B0000317880083128701880189010313A801AF
:1000C000A9013230AE00FF30AF00B001B101B20182
:1000D000B301831603170908C039890003131F12DF
:1000E0009F120030043803178800831203131F1770
:1000F0009F1783169F1383121F149412AF122F0899
:100100008316870083122F162F0883168700831209
:10011000AF112F088316870001308312940000303E
:10012000831694000108C7390838810083129001B2
:100130000030F800920000308316920083120317FB
:100140008701880189018316031309108910091199
:100150000830F80083121F08C33978049F00831603
:1001600009108910091183128901C0308B043008ED
:100170000C1EB8289900B308031DC828B208031D37
:10018000C828B108031DC8282E083002031CCD283A
:100190008316091183120911D128831609118312BC
:0601A0000915B7286300F9
:04400E00D520FF3F7B
:00000001FF
;PIC16F887
