:1000000000308A001A28000033308400831300086F
:10001000031917280630F800F701F70B0D28F80B25
:100020000C287B30F700F70B1328800B0A288A1165
:100030000A12A028840183131F3083058316031737
:100040000908C039890003131F129F1200300317DB
:1000500088008312870188018901FF300313A00003
:100060000130A1000230A2000430A3000830A40037
:100070000330A6000630A7000C30A8000930A90004
:100080000130AA000330AB000230AC000630AD00F6
:100090000430AE000C30AF000830B0000930B100C1
:1000A000831603170908C039890003131F129F1212
:1000B000003003178800831203131F109412A0123C
:1000C00020088316870083122016200883168700D5
:1000D0008312A01120088316870001308312940038
:1000E0000030831694000108C73908388100831254
:1000F00090010030F80092000030831692008312C5
:10010000031787018801890183160313870083126F
:10011000A0000830A500A5080319A4282A30250747
:10012000840083130008B2000030A000831687010A
:100130008312320887000230B2009630B3000428E0
:0C014000B20B9D28A5038B2889286300C2
:04400E00F220FF3F5E
:00000001FF
;PIC16F887
