:1000000000308A00D12A00000A108A100A118207E3
:1000100028340C34013406340A108A100A1182077D
:10002000413453345334493447344E344D344534D9
:100030004E345434303438342D3441344434433421
:1000400000340A108A100A118207503452344534A1
:1000500053345334563441344C34553445343A34A3
:100060002034203450345334493400343030840048
:1000700083130008031949280630F800F701F70B2D
:100080003F28F80B3E287B30F700F70B4528800B04
:100090003C280034370EF039F7000F30080577049C
:1000A0008800000008140330F700F70B55280810EB
:1000B00000348810F0308316880083120815000081
:1000C000081400000808080E0F39B70008100000D7
:1000D00008146A286B2800000808080E0F39B600BB
:1000E00008100030831688008312370EF700F030B6
:1000F000F70577083604F8007808B600B61B5A28CA
:10010000341C8810341888140000081100000810EE
:10011000350EB6000F30B6053608B7004A20350850
:100120000F39B600B7004A2000340030831688002B
:1001300083128810081108100F30B00036200130EB
:10014000AE002E08033C031CAD280330B7004A2044
:100150000530B0003620AE0AA1280230B7004A2090
:10016000AE012E08033C031CBE282E080420AF005D
:10017000B4012F08B5005920AE0AB1288A110A121D
:100180002A2B310BC428C7284030B200C828B2013E
:1001900001303002B20732088038B300B4013308AE
:1001A000B500592000342F080C3A0319DE28063A0E
:1001B0000319E628023A0319EC28F128B4010130AA
:1001C000B50059200230B0003620F7280130B000C9
:1001D0000230B100C120F728B4011030B500592019
:1001E000F7280130B4002F08B5005920F728003453
:1001F0002030C900C501C601C701C8014008FA0086
:100200003F08F9003E08F8003D08F7000310771C8E
:1002100017294108C50742080318420FC6074308BB
:100220000318430FC70744080318440FC807C80C36
:10023000C70CC60CC50CFA0CF90CF80CF70CC90B62
:1002400006290034F701F801F901FA01BA01BB01EE
:10025000BC01BD013908380437043604031960298C
:100260002030BE000310B20DB30DB40DB50DBA0DA4
:10027000BB0DBC0DBD0D39083D02031D49293808D1
:100280003C02031D492937083B02031D4929360852
:100290003A02031C5A293608BA023708031C370FE2
:1002A000BB023808031C380FBC023908031C390F85
:1002B000BD020314F70DF80DF90DFA0DBE0B32292E
:1002C0003A30840083138A110A12752B44084806B9
:1002D0008039CE00C41F7729C109C209C309C409E6
:1002E000C10A0319C20A0319C30A0319C40AC81FA1
:1002F0008429C509C609C709C809C50A0319C60A58
:100300000319C70A0319C80AF701F801F901FA012C
:10031000C901CA01CB01CC01480847044604450481
:100320000319C2292030CD000310C10DC20DC30D29
:10033000C40DC90DCA0DCB0DCC0D48084C02031DD0
:10034000AB2947084B02031DAB2946084A02031D8F
:10035000AB2945084902031CBC294508C9024608C7
:10036000031C460FCA024708031C470FCB0248086C
:10037000031C480FCC020314F70DF80DF90DFA0D0C
:10038000CD0B9429CE1FCF29F709F809F909FA09ED
:10039000F70A0319F80A0319F90A0319FA0A493086
:1003A0008400831300340130B500B601B701B801F1
:1003B000BA01BB01B11FF4290130BA003108C000F5
:1003C0003008BF002F08BE002E08BD00FF30C4005B
:1003D000C300C200C100F8207A08B1007908B0005B
:1003E0007808AF007708AE00B508031D002AB608EC
:1003F000031D002AB708031D002AB8080319862A1E
:100400003108C4003008C3002F08C2002E08C10004
:10041000C801C701C6013208C50066217A08B800C4
:100420007908B7007808B6007708B5003B083307AD
:10043000F8003408FA000318FA0A7808BD007A08B0
:10044000BE00C0010408BF004010831B40143108E7
:10045000C4003008C3002F08C2002E08C100C80124
:10046000C701C6013208C50066210008F700840AEA
:100470000008F800840A0008F900840A0008FA005D
:100480003F0884008313401883177A08C400790852
:10049000C3007808C2007708C10030307707F70042
:1004A0007808F800003003180130F8077908F900DF
:1004B000003003180130F9077A08FA0000300318F9
:1004C0000130FA073D08840083133E18831777082C
:1004D00080003B0833078400831334188317000817
:1004E000393C03187C2A3B083307840083133418F3
:1004F0008317073000078000BB0A3808B1003708AF
:10050000B0003608AF003508AE00F4293A0B912A46
:100510003B08330784008313341883172D30800081
:10052000BB0AB90103103B0C39020318C32A39086E
:10053000330784008313341883170008BC0039087C
:100540003307F8003408FA000318FA0A39083B02A6
:10055000FF3E330784008313341883170008C1005B
:100560007808840083137A188317410880003908BB
:100570003B02FF3E330784008313341883173C0883
:100580008000B90A922A3B08330784008313341889
:10059000831780013308F8003408F9008A110A1221
:1005A000992B840183131F308305831603170908D1
:1005B000C039890003131F129F12003003178800EF
:1005C00083128701880189010313A001A101FF3073
:1005D000A600831603170908C039890003131F12E8
:1005E0009F120030013803178800831203131F176E
:1005F0009F1783169F1383121F149412A6122608A6
:100600008316870083122616260883168700831216
:10061000A61126088316870001308312940000304B
:10062000831694000108C7390838810083129001AD
:100630000030F800920000308316920083120317F6
:10064000870188018901F80003131F08C339780462
:100650009F0095280130B000B100C120AE012E08E6
:100660000C20AE0AF700AF00D32010302E02031D7D
:100670002F2B0130B0000230B100C120AE012E0896
:100680002120AE0AF700AF00D32010302E02031D48
:100690003F2B9F149F184A2B1E08AA01A901A801ED
:1006A000A700C001BF01BE010C30BD002A08C40074
:1006B0002908C3002808C2002708C100F8207A08CA
:1006C000B1007908B0007808AF007708AE007A086A
:1006D000B5007908B4007808B3007708B200B90112
:1006E000B801B701FF30B60022297A08AA007908BC
:1006F000A9007808A8007708A7000330A7070030F2
:1007000003180130A807003003180130A907003092
:1007100003180130AA072A08B1002908B0002808E8
:10072000AF002708AE000A30B200B4012C30B3008D
:10073000D3290C30B0000230B100C120AB012B082E
:10074000013C031CAD2B2C302B07840083130008C5
:0E075000AE00AF00D320AB0A9F2B492B6300F5
:04400E00F220FF3F5E
:00000001FF
;PIC16F887
