:1000000000308A001A2A00000A108A100A1182079A
:1000100028340C34013406340A108A100A1182077D
:10002000523465346334693465347634653420344D
:10003000533431343A34203400340A108A100A110F
:1000400082075234653463346934653476346534F8
:100050002034533432343A3420340034293084008C
:1000600083130008031941280630F800F701F70B45
:100070003728F80B36287B30F700F70B3D28800B2C
:1000800034280034300EF039F7000F3008057704BB
:100090008800000008140330F700F70B4D28081003
:1000A00000348810F0308316880083120815000091
:1000B000081400000808080E0F39B00008100000EE
:1000C00008146228632800000808080E0F39AF00E2
:1000D00008100030831688008312300EF700F030CD
:1000E000F70577082F04F8007808AF00AF1B5228F7
:1000F0002D1C88102D18881400000811000008100D
:100100002E0EAF000F30AF052F08B00042202E0892
:100110000F39AF00B0004220003400308316880051
:1001200083128810081108100F30A9002E2001300A
:10013000A2002208033C031CA5280330B000422083
:100140000530A9002E20A20A99280230B0004220D2
:10015000A2012208033C031CB62822080420A300A5
:10016000AD012308AE005120A20AA9288A110A1263
:10017000332A2A0BBC28BF284030AB00C028AB0173
:1001800001302902AB072B088038AC00AD012C08E8
:10019000AE005120003428080C3A0319D628063A3C
:1001A0000319DE28023A0319E428E928AD010130D9
:1001B000AE0051200230A9002E20EF280130A90006
:1001C0000230AA00B920EF28AD011030AE00512056
:1001D000EF280130AD002808AE005120EF28003490
:1001E0000830F8000430F700F70BF4288711A0114D
:1001F0002008831687000330F700F70BFD288312D1
:10020000A20D0712031C0A29201620088316870056
:100210000E29831220122008831687000000831203
:10022000A0152008831687008312871D1529F80B57
:10023000F2280430F700F70B1B298711A0112008C2
:10024000831687000000831220162008831687007B
:100250000330F700F70B2A290330F700F70B2E299C
:100260008312A0152008831687008312871D362964
:10027000F8010330F700F70B3B29071A78148711B0
:10028000A01120088316870083120712201220086D
:1002900083168700831200340830A3007708A40077
:1002A00020162008831687000330F700F70B562925
:1002B0008312A0152008831687008312871D5E29EC
:1002C000071A0314071E0310F80D0430F700F70B8C
:1002D0006729A01120088316870083128711A30BBA
:1002E000502920162008831687000330F700F70BEB
:1002F0007729831207122408031983292012200862
:100300008316870083120000A0152008831687003B
:100310008312871D89290430F700F70B8D29871177
:10032000A0112008831687000330F700F70B9629E9
:1003300083120712201220088316870083120034CC
:100340002908F80128020318A8292808F700B42969
:10035000F7010830AA00A80DF70D29087702031845
:10036000F700F80DAA0BAB2900342030231E3030E3
:10037000A4002208F700A21FC429F709F70A77088A
:10038000A2002D30A400A3172208A8006430A90001
:10039000A0217708A20030307807A5002208A80025
:1003A0000A30A900A02130307707A7003030780745
:1003B000A6002408F700A31DDF29A31F2311231A79
:1003C000EC29A31F072A2319072A7708A500A318D9
:1003D000072A7708A600072A30302502031D072ABE
:1003E0007708A5002030A400A31DFA292311A31427
:1003F000A31FA31030302602031D072A7708A6008A
:100400002030A500A31DFA29A310A31F2310231D2C
:100410000C2A2408A800CB20A31C112A2508A80018
:10042000CB20231C162A2608A800CB202708A800CA
:10043000CB200034840183131F3083058130831661
:100440009900A630980090308312980083161F14EC
:100450009F141F159F1107309C00FF308312A000CE
:100460000930A1008D2883161F149F141F159F119A
:1004700083121F10831609120108C739083881003A
:10048000831290010030F800920000308316920031
:1004900007309C0005081030F700F70B4D2A0000CC
:1004A0001C0883120D1383169D018312A2012208DA
:1004B0000C2000380319602AA20AA800CB20572A72
:1004C00020162008831687000430F700F70B662AF1
:1004D0008312A0152008831687000330F700F70B5E
:1004E0006F2A831207122012200883168700043017
:1004F000F700F70B792A83128711A01120088316C1
:10050000870001308312A9002E20A030A200F02025
:100510000130A9002E20A201F0200130A9002E20D8
:100520000330A200F0200130A9002E202012200864
:100530008316870000008312A01520088316870009
:100540008312871DA12A0430F700F70BA52AA82AD9
:10055000000020162008831687000430F700F70BF0
:10056000AF2A0A308312A9002E20201620088316F5
:1005700087000430F700F70BBB2A8312A015200870
:10058000831687000330F700F70BC42A8312071283
:1005900020122008831687000430F700F70BCE2ABC
:1005A00083128711A011200883168700013083125F
:1005B000A9002E20A030A200F0200130A9002E209A
:1005C0000130A200F0200130A9002E200730A20047
:1005D000F0200130A9002E20201220088316870069
:1005E00000008312A0152008831687008312871D40
:1005F000F72A0430F700F70BFB2AFE2A000020162A
:100600002008831687000430F700F70B052B0A300B
:100610008312A9002E20201620088316870004309C
:10062000F700F70B112B8312A01520088316870003
:100630000330F700F70B1A2B831207122012200841
:10064000831687000430F700F70B242B83128711E1
:10065000A01120088316870001308312A9002E20E4
:10066000A030A200F0200130A9002E200130A2000D
:10067000F0200130A9002E202016200883168700C4
:100680000430F700F70B422B8312A01520088316C5
:1006900087000330F700F70B4B2B8312871D4E2B7F
:1006A000071220122008831687000430F700F70B8A
:1006B000572B83128711A011200883168700013061
:1006C0008312A9002E20A130A200F020F7014C21B6
:1006D0007808A100201220088316870000008312EA
:1006E000A0152008831687008312871D752B043000
:1006F000F700F70B792B7C2B0000201620088316BF
:1007000087000430F700F70B832B83122108A20027
:100710001F30A300B5210A30A9002E202016200882
:10072000831687000430F700F70B942B8312A01573
:100730002008831687000330F700F70B9D2B8312E8
:10074000071220122008831687000430F700F70BE9
:10075000A72B83128711A011200883168700013070
:100760008312A9002E20A030A200F0200130A900A1
:100770002E20A201F0200130A9002E2020162008F2
:10078000831687000430F700F70BC42B8312A015E3
:100790002008831687000330F700F70BCD2B831258
:1007A000871DD02B071220122008831687000430E3
:1007B000F700F70BD92B83128711A011200883169D
:1007C000870001308312A9002E20A130A200F02062
:1007D000F7014C217808A100201220088316870019
:1007E00000008312A0152008831687008312871D3E
:1007F000F72B0430F700F70BFB2BFE2B0000201625
:100800002008831687000430F700F70B052C8312AD
:100810002108A2001F30A300B5212016200883164E
:1008200087000430F700F70B132C8312A015200863
:10083000831687000330F700F70B1C2C8312071276
:1008400020122008831687000430F700F70B262CAF
:1008500083128711A01120088316870001308312AC
:10086000A9002E20B030A200F0200130A9002E20D7
:10087000A201F0200130A9002E200630A200F020B5
:100880000130A9002E2020122008831687000000C6
:100890008312A0152008831687008312871D4E2C13
:1008A0000430F700F70B522C552C000020162008BE
:1008B000831687000430F700F70B5C2C0A30831294
:1008C000A9002E2020162008831687000430F70088
:1008D000F70B682C8312A0152008831687000330BD
:1008E000F700F70B712C83120712201220088316D1
:1008F00087000430F700F70B7B2C83128711A011BF
:1009000020088316870001308312A9002E20B03002
:10091000A200F0200130A9002E200130A200F0201A
:100920000130A9002E200930A200F0200130A900DA
:100930002E20201220088316870000008312A015A5
:100940002008831687008312871DA42C0430F7002B
:10095000F70BA82CAB2C000020162008831687006C
:100960000430F700F70BB22C01308312A9000230DB
:10097000AA00B920A20122081D2000380319C42CA6
:10098000A20AA800CB20BB2C0A30A9002E202016DA
:100990002008831687000430F700F70BCD2C831254
:1009A000A0152008831687000330F700F70BD62C1C
:1009B0008312071220122008831687000430F700E4
:1009C000F70BE02C83128711A011200883168700F3
:1009D00001308312A9002E20B030A200F020013097
:1009E000A9002E200130A200F0200130A9002E2005
:1009F00020162008831687000430F700F70BFE2C22
:100A00008312A0152008831687000330F700F70B28
:100A1000072D8312871D0A2D071220122008831626
:100A200087000430F700F70B132D83128711A011F4
:100A300020088316870001308312A9002E20B130D0
:100A4000A200F020F7014C217808A1002012200814
:100A50008316870000008312A015200883168700E4
:100A60008312871D312D0430F700F70B352D382DFB
:100A7000000020162008831687000430F700F70BCB
:100A80003F2D83122108A2001F30A300B5210A3098
:100A9000A9002E2020162008831687000430F700B6
:100AA000F70B502D8312A015200883168700033002
:100AB000F700F70B592D8312071220122008831616
:100AC00087000430F700F70B632D83128711A01104
:100AD00020088316870001308312A9002E20B03031
:100AE000A200F0200130A9002E20A201F020013048
:100AF000A9002E2020162008831687000430F70056
:100B0000F70B802D8312A015200883168700033071
:100B1000F700F70B892D8312871D8C2D07122012E9
:100B20002008831687000430F700F70B952D8312F9
:100B30008711A01120088316870001308312A900B5
:100B40002E20B130A200F020F7014C217808A1003E
:100B5000201220088316870000008312A0152008A9
:100B6000831687008312871DB32D0430F700F70B1F
:100B7000B72DBA2D000020162008831687000430F8
:100B8000F700F70BC12D83122108A2001F30A3002C
:060B9000B521C92D630030
:02400E003A393D
:00000001FF
;PIC16F877A
