:1000000000308A001A280000323084008313000870
:10001000031917280630F800F701F70B0D28F80B25
:100020000C287B30F700F70B1328800B0A288A1165
:100030000A12A528840183131F30830583161F1419
:100040009F141F159F1107309C00FF308312A000E2
:100050003F30A1000630A2005B30A3004F30A40067
:100060006630A5006D30A6007D30A7000730A800DF
:100070007F30A9006F30AA000230AE000530AF001B
:100080000730B0000930B10083161F149F141F15EC
:100090009F1183121F108316091283129412A0124B
:1000A00020088316870083122016200883168700F5
:1000B0008312A01120088316870001308312940058
:1000C0000030831694000108C73908388100831274
:1000D00090010030F8009200003083169200073043
:1000E0009C0005081030F700F70B742800001C086E
:1000F00083120D1383169D0100308800F0308700B5
:100100008312A0000130AC00AB012B08033C031CA0
:10011000A9282C08AD00AD090030A0008316870186
:1001200083122D0887002E302B0784008313213083
:100130000007840083130008B3008316880183122C
:1001400033088800C830B20004280310AC0DAB0A95
:06015000852882286300EF
:02400E003A393D
:00000001FF
;PIC16F877A
