:1000000000308A001A28000034308400831300086E
:10001000031917280630F800F701F70B0D28F80B25
:100020000C287B30F700F70B1328800B0A288A1165
:100030000A12A628840183131F30830583161F1418
:100040009F141F159F1107309C00FF308312A000E2
:100050003F30A1000630A2005B30A3004F30A40067
:100060006630A5006D30A6007D30A7000730A800DF
:100070007F30A9006F30AA000130AE00AF01B0019F
:100080000630B1000430B200B30183161F149F1470
:100090001F159F1183121F108316091283129412C9
:1000A000A0122008831687008312201620088316CA
:1000B00087008312A0112008831687000130831265
:1000C00094000030831694000108C7390838810075
:1000D000831290010030F8009200003083169200E5
:1000E00007309C0005081030F700F70B752800005A
:1000F0001C0883120D1383169D0180308800C030C8
:1001000087008312A0000130AC00AB012B08053C36
:10011000031CAA282C08AD00AD090030A0008316EE
:10012000870183122D0887002E302B07840083134C
:1001300021300007840083130008B500831688016E
:100140008312350888009630B40004280310AC0DE3
:08015000AB0A86288328630036
:02400E003A393D
:00000001FF
;PIC16F877A
